:020000040800F2
:10000000080600209D050008B9050008BD05000888
:10001000C1050008C5050008C9050008000000006A
:10002000000000000000000000000000CD050008F6
:10003000D105000800000000D5050008D90500081A
:10004000DD050008E1050008E505000800000000E6
:1000500000000000E9050008ED050008F1050008B2
:10006000F505000800000000F9050008FD0500087E
:100070000106000800000000050600080906000847
:100080000D06000811060008000000001506000813
:100090001906000800000000000000000000000039
:1000A0000000000000000000000000001D06000825
:1000B0002106000825060008290600082D0600086C
:1000C0000021C16000210161002141600021016027
:1000D0000021816000214161002181610021C16115
:1000E00070472DE9FC4FD0F804B0DC46D0F808B0DA
:1000F000DE46D0F80CB0D846D0F810B0D946D0F8CB
:1001000014B0DA46D0F818B05A46D0F81CB05B46A6
:100110005FF0000B5C465FF0010B5D465FF0030B88
:100120005E465FF0011B5F46B1F800B0CDF804B049
:10013000DDF804B0BBF1000F6CD0DDF804B05FEA6D
:10014000CB7B5CD53CEA050C91F802B01BFA04FBB2
:100150005BEA0C0C3EEA060ECDF800E091F808B020
:10016000A6465FFA8EFE5FEA4E0E1BFA0EFEDDF823
:1001700000B05EEA0B0E38EA050891F80AB01BFAE7
:1001800004FB5BEA080839EA0709CDF8009091F80A
:1001900003B014F110091BFA09F9DDF800B059EAAF
:1001A0000B0991F804B01BFA04FB5BEA09093AEA6F
:1001B000070ACDF800A091F805B014F1100A1BFA57
:1001C0000AFADDF800B05AEA0B0A91F806B01BFAF9
:1001D00004FB5BEA0A0AB243009291F809B02200DC
:1001E000D2B252001BFA02F2DDF800B052EA0B0262
:1001F000AB4391F807B01BFA04FB5BEA03036D0005
:10020000B6007F00641CDDF804B05FEA5B0BCDF83C
:1002100004B08DE7DFF8E4B0584502D15FF01F0B62
:1002200001E05FF0000B3CEA0B0BC0F804B0DFF814
:10023000CCB0584502D15FF01F0B01E05FF0000B1E
:100240003EEA0B0BC0F808B0DFF8B0B0584502D159
:100250005FF01F0B01E05FF0000B38EA0B0BC0F8FA
:100260000CB0DFF898B0584502D15FF01F0B01E0E9
:100270005FF0000B39EA0B0BC0F810B0DFF87CB070
:10028000584502D15FF01F0B01E05FF0000B3AEA26
:100290000B0BC0F814B0DFF864B0584502D15FF022
:1002A0001F0B01E05FF0000B32EA0B0BC0F818B037
:1002B000DFF848B0584502D15FF01F0B01E05FF056
:1002C000000B33EA0B0BC0F81CB0BDE8F38F0268DB
:1002D0000A4B984201D11F2300E000239A430A43AE
:1002E00002607047054A904201D11F2200E00022BF
:1002F00003680A4333EA02020260704700000C40C0
:1003000030B42F4C2468A40702D52E4C230001E002
:100310002C4C23002A4C2468E40700D55B08180005
:10032000274C2468640706D5274C2468C4F30324AB
:10033000641C22005043224C2468240A14F0030455
:10034000002C03D0022C10D004D313E01D4C1F4D01
:100350002C6013E01A4C2468C4F30314641CB0FB33
:10036000F4F42100194C216008E04FF40044174DCB
:100370002C6003E049F64044144D2C6030BC7047BB
:1003800080B51348134908600D48006800200C49E7
:1003900008600D48006800200B4908600E4800689E
:1003A00000200D4908600D48006800200B490860D6
:1003B0000B48006800200A490860FFF7A1FF01BD53
:1003C0000C00024000127A000400024000000020ED
:1003D000100000081C00024008000240100002400B
:1003E00014000240002801D0401EFBE7704700B512
:1003F00087B00121274800F053F84FF4F840ADF8DA
:100400000C0001208DF80E0000208DF81400012052
:100410008DF8160001208DF815001F4800904FF44C
:10042000F8400190684600F054F803A8029068462E
:1004300000F048F84FF48061684600F050F8174823
:10044000FFF7D0FF4FF40061684600F048F813480A
:10045000FFF7C8FF4FF48051684600F040F80F489E
:10046000FFF7C0FF4FF40051684600F038F80B4822
:10047000FFF7B8FF4FF48041684600F030F80748B6
:10048000FFF7B0FF684600F032F80448FFF7AAFF14
:10049000D0E700001000000100000C40E0930400D1
:1004A000C9B2002905D0064A12680243044B1A60FB
:1004B00004E0034A12688243014B1A60704700004F
:1004C0001C00024010B50400A1682068FFF709FE77
:1004D00010BD10B504002068FFF7F2FD10BD38B55F
:1004E00004000D0029002068FFF7F1FE31BD10B5B2
:1004F000040061682068FFF7F5FE10BD10B450F8E5
:10050000041B79B10268436812180830DC0744BF45
:10051000A9F10104E31852F8044B43F8044B091FF6
:10052000F9D1ECE710BC704710B507497944183190
:10053000064C7C44163404E00A68081D51188847AC
:100540000146A142F8D110BD0800000018000000CB
:10055000ADFFFFFF04000000D800000000000020F5
:10056000000000000120C046002801D0FFF7DCFF9A
:100570000020C046C046FFF73AFF00F000F800F048
:1005800001B800000746384600F002F8FBE700001B
:100590002021090326311820ABBEF9E70148804726
:1005A0000148004781030008AD050008C046C04669
:1005B000C046C046FFF7D6FFFFF7FEBFFFF7FEBFFE
:1005C000FFF7FEBFFFF7FEBFFFF7FEBFFFF7FEBF5F
:1005D000FFF7FEBFFFF7FEBFFFF7FEBFFFF7FEBF4F
:1005E000FFF7FEBFFFF7FEBFFFF7FEBFFFF7FEBF3F
:1005F000FFF7FEBFFFF7FEBFFFF7FEBFFFF7FEBF2F
:10060000FFF7FEBFFFF7FEBFFFF7FEBFFFF7FEBF1E
:10061000FFF7FEBFFFF7FEBFFFF7FEBFFFF7FEBF0E
:10062000FFF7FEBFFFF7FEBFFFF7FEBFFFF7FEBFFE
:0406300000127A003A
:04000005080005AD3D
:00000001FF
