:020000040800F2
:100000000806002059050008750500087905000854
:100010007D05000881050008850500080000000036
:10002000000000000000000000000000890500083A
:100030008D050008000000009105000895050008E6
:10004000990500089D050008A105000800000000B2
:1000500000000000A5050008A9050008AD0500087E
:10006000B105000800000000B5050008B90500084A
:10007000BD05000800000000C1050008C505000816
:10008000C9050008CD05000800000000D1050008E2
:10009000D50500080000000000000000000000007E
:1000A000000000000000000000000000D90500086A
:1000B000DD050008E1050008E5050008E905000880
:1000C0000021C16000210161002141600021016027
:1000D0000021816000214161002181610021C16115
:1000E00070472DE9FC4FD0F804B0DC46D0F808B0DA
:1000F000DE46D0F80CB0D846D0F810B0D946D0F8CB
:1001000014B0DA46D0F818B05A46D0F81CB05B46A6
:100110005FF0000B5C465FF0010B5D465FF0030B88
:100120005E465FF0011B5F46B1F800B0CDF804B049
:10013000DDF804B0BBF1000F6CD0DDF804B05FEA6D
:10014000CB7B5CD53CEA050C91F802B01BFA04FBB2
:100150005BEA0C0C3EEA060ECDF800E091F808B020
:10016000A6465FFA8EFE5FEA4E0E1BFA0EFEDDF823
:1001700000B05EEA0B0E38EA050891F80AB01BFAE7
:1001800004FB5BEA080839EA0709CDF8009091F80A
:1001900003B014F110091BFA09F9DDF800B059EAAF
:1001A0000B0991F804B01BFA04FB5BEA09093AEA6F
:1001B000070ACDF800A091F805B014F1100A1BFA57
:1001C0000AFADDF800B05AEA0B0A91F806B01BFAF9
:1001D00004FB5BEA0A0AB243009291F809B02200DC
:1001E000D2B252001BFA02F2DDF800B052EA0B0262
:1001F000AB4391F807B01BFA04FB5BEA03036D0005
:10020000B6007F00641CDDF804B05FEA5B0BCDF83C
:1002100004B08DE7DFF8E4B0584502D15FF01F0B62
:1002200001E05FF0000B3CEA0B0BC0F804B0DFF814
:10023000CCB0584502D15FF01F0B01E05FF0000B1E
:100240003EEA0B0BC0F808B0DFF8B0B0584502D159
:100250005FF01F0B01E05FF0000B38EA0B0BC0F8FA
:100260000CB0DFF898B0584502D15FF01F0B01E0E9
:100270005FF0000B39EA0B0BC0F810B0DFF87CB070
:10028000584502D15FF01F0B01E05FF0000B3AEA26
:100290000B0BC0F814B0DFF864B0584502D15FF022
:1002A0001F0B01E05FF0000B32EA0B0BC0F818B037
:1002B000DFF848B0584502D15FF01F0B01E05FF056
:1002C000000B33EA0B0BC0F81CB0BDE8F38F0268DB
:1002D0000A4B984201D11F2300E000239A430A43AE
:1002E00002607047054A904201D11F2200E00022BF
:1002F00003680A4333EA02020260704700000C40C0
:1003000030B42F4C2468A40702D52E4C230001E002
:100310002C4C23002A4C2468E40700D55B08180005
:10032000274C2468640706D5274C2468C4F30324AB
:10033000641C22005043224C2468240A14F0030455
:10034000002C03D0022C10D004D313E01D4C1F4D01
:100350002C6013E01A4C2468C4F30314641CB0FB33
:10036000F4F42100194C216008E04FF40044174DCB
:100370002C6003E049F64044144D2C6030BC7047BB
:1003800080B51348134908600D48006800200C49E7
:1003900008600D48006800200B4908600E4800689E
:1003A00000200D4908600D48006800200B490860D6
:1003B0000B48006800200A490860FFF7A1FF01BD53
:1003C0000C00024000127A000400024000000020ED
:1003D000100000081C00024008000240100002400B
:1003E00014000240002801D0401EFBE7704700B512
:1003F00087B00121164800F031F84FF40040ADF805
:100400000C0001208DF80E0000208DF81400012052
:100410008DF8160001208DF815000E4800904FF45D
:1004200000400190684600F032F803A80290684648
:1004300000F026F8684600F030F80748FFF7D2FFD2
:10044000684600F031F80448FFF7CCFFF2E70000FF
:100450001000400000000B40E0930400C9B20029E6
:1004600005D0064A12680243044B1A6004E0034AAE
:1004700012688243014B1A60704700001C00024062
:1004800010B50400A1682068FFF72BFE10BD10B561
:1004900004002068FFF714FE10BD10B50400616869
:1004A0002068FFF714FF10BD10B5040061682068D4
:1004B000FFF718FF10BD10B450F8041B79B10268A3
:1004C000436812180830DC0744BFA9F10104E3189F
:1004D00052F8044B43F8044B091FF9D1ECE710BC68
:1004E0007047000010B5074979441831064C7C4428
:1004F000163404E00A68081D511888470146A142D5
:10050000F8D110BD0800000018000000ABFFFFFF8D
:1005100004000000D80000000000002000000000DF
:100520000120C046002801D0FFF7DCFF0020C046B4
:10053000C046FFF75CFF00F000F800F001B80000D3
:100540000746384600F002F8FBE7000020210903C7
:1005500026311820ABBEF9E7014880470148004723
:100560008103000869050008C046C046C046C04671
:10057000FFF7D6FFFFF7FEBFFFF7FEBFFFF7FEBF97
:10058000FFF7FEBFFFF7FEBFFFF7FEBFFFF7FEBF9F
:10059000FFF7FEBFFFF7FEBFFFF7FEBFFFF7FEBF8F
:1005A000FFF7FEBFFFF7FEBFFFF7FEBFFFF7FEBF7F
:1005B000FFF7FEBFFFF7FEBFFFF7FEBFFFF7FEBF6F
:1005C000FFF7FEBFFFF7FEBFFFF7FEBFFFF7FEBF5F
:1005D000FFF7FEBFFFF7FEBFFFF7FEBFFFF7FEBF4F
:1005E000FFF7FEBFFFF7FEBFFFF7FEBF00127A0066
:040000050800056981
:00000001FF
